:10000000F3EF08F06896000C046ED8CF05F0E0CF4F
:1000100006F00001E9CF0CF0EACF07F0E1CF08F0DD
:10002000E2CF09F0D9CF0AF0DACF0BF0F3CF12F01C
:10003000F4CF13F0FACF14F000C00EF001C00FF0AF
:1000400002C010F003C011F09DAA2AEF00F09EBA82
:1000500082EF08F0A0AA30EF00F0A1BA16EF08F086
:100060000EC000F00FC001F010C002F011C003F08C
:100070000CC0E9FF07C0EAFF078E08C0E1FF09C016
:10008000E2FF0AC0D9FF0BC0DAFF12C0F3FF13C0B2
:10009000F4FF14C0FAFF045006C0E0FF05C0D8FF0B
:1000A0001000F76AB20FF66E000EF7220900F55045
:1000B0001200000302FFFFFFFFFFFFFFFFFFFFFF34
:1000C000FFFFF76AD20FF66E000EF7220900F55017
:1000D000120000FF02FFFFFFFFFFFFFFFFFFFFFF18
:1000E000FFFFF76AF20FF66E000EF7220900F550D7
:1000F0001200400008004000000000000000000066
:1001000000000000000000000000000000000000EF
:10011000000007AE03D0F2CF0DF0F29EF76A340F65
:10012000F66E010EF7220900F55007AE02D00DBEA3
:10013000F28E1200400000004000000000000000AD
:1001400000000000000000000000000000000000AF
:1001500000000000F76A640FF66E010EF722090036
:10016000F5501200090243000201008096090400C4
:10017000000102020100052400100104240202050E
:10018000240600010524010001070581030800FA87
:1001900009040100020A00000007050202400001F4
:1001A0000705820240000100F76AB80FF66E010EE3
:1001B000F7220900F55012000200F76ACA0FF66E26
:1001C000010EF7220900F550120012171B20FFFF45
:1001D000FFFFF76AE20FF66E010EF7220900F550F5
:1001E00012001201100102000040D8040A000001B0
:1001F00001020001F76A040FF66E020EF7220900F1
:10020000F55012000403090408034300430053009F
:100210001803530045005200490041004C002000E3
:10022000440045004D004F006D92699468A402D0CF
:100230006894FCD722EF08F0400E0401016F040E11
:10024000036F180E026F880E006F046B040E076FA9
:10025000580E066F0001000C70A002D0EDDF709008
:10026000689A2BEF08F06A6A689231EF08F099916A
:1002700098BF9981989F9851100803E2000E016E73
:1002800021D099A110D0036A9851F2CF9AF0F29E32
:1002900008DF9ABFF28EFF0802E1000E01D0010EC6
:1002A000016E10D00FD0036A9851F2CF9AF0F29EEF
:1002B00008DF9ABFF28EFF0802E1000E01D0010EA6
:1002C000016E00D0000C9D519F03F3CF01F0F4CFDD
:1002D00000F0A003F35000269E519F03F35000202E
:1002E000026E000C036A9751700FE96E0F0E032027
:1002F000EA6EEF6A97C098F0BADF015222E09E6B77
:1003000097C09DF0A06B080E9F6FDDDF01C0E9FF75
:10031000040E0224EA6EEF6A9E6B97C09DF0A06BFC
:10032000080E9F6FD0DF02C099F001C098F0040E54
:100330009827000E992398C0E9FF040E9925EA6ECC
:10034000EF6A000C010E966F96510F0805E396C0F8
:1003500097F0C8DF962BF8D7000C296A286A250E7B
:10036000276E800E266E2A6A2B6A080E2C6E7B6B17
:100370007A912E6A2D6A766B7791000C8C6B8C517A
:1003800001080AE3036A8C51240FE96E000E032072
:10039000EA6EEF6A8C2BF3D7E0DF186A010E196E54
:1003A000176A000C6A6A686A9F0E6B6E3D0E696E72
:1003B0006E6AC8DFE3DF160E706E68A602D022DE1A
:1003C000FCD76D9839DF030E1F6E37EF08F0698494
:1003D00068986D823DEF08F0689C43EF08F091C08B
:1003E00020F0000CFF0E206E000C8F6B235235E0C6
:1003F0008F513F0832E31A5005E0020A0DE0010A6E
:1004000015E01ED0036A2250F2CF91F0F29EA2DED8
:1004100091BFF28E906F14D0036A2250F2CF91F008
:10042000F29EE8DE91BFF28E906F0AD0036A2250EE
:10043000F2CF91F0F29ECDDE91BFF28E906F00D0A0
:10044000222A23068F518F2B580FE96E040EEA6E75
:10045000D8B0EA2A90C0EFFFC9D7235204E18F51E8
:10046000400801E0176A8FC091F0B9DF000C226AE2
:100470001A6A04011B51010A000107E0030A0AE09D
:10048000010A0BE0220A20E03AD0120E236E030E7E
:100490001A6E37D0430E236E34D0020E1A6E036AE2
:1004A00004011A511B0FE96E000E0320EA6EEFCF14
:1004B00022F0036A2250F2CF8EF0F29E00019ADE03
:1004C0008EBFF28E236E1DD0036A04011A51F2CF43
:1004D0008EF0F29E000171DE8EBFF28E226E223C03
:1004E00001D00BD0036A2250F2CF8EF0F29E32DEA2
:1004F0008EBFF28E236E05D002D074DF0ED072DF75
:100500000CD004011F5305E123501E5D02E21EC4FE
:1005100023F0010E176E000168DFCFEF03F08E535A
:1005200004E1040E1F6E0EDFE7D0050E1F6E040EF1
:10053000916F980E906F010E8F6F8F510F08D8A09A
:10054000DBD08FC097F0CEDE926B036A8F51F2CF73
:1005500096F0F29EB6DD96BFF28EFF0863E0040EC1
:10056000926FD8908F35036AF2CF96F0F29ED1DD6C
:100570000900F5CF03F096BFF28E936F03C094F09D
:100580009E6B8FC09DF0A06B080E9F6F9CDE01C01C
:1005900096F0010E0124016E000E0220036E01C0D0
:1005A000E9FF040E0324EA6E93C0EFFF9E6B8FC039
:1005B0009DF0A06B080E9F6F86DE01C096F0020EC4
:1005C0000124016E000E0220036E01C0E9FF040E3B
:1005D0000324EA6E91C0ECFFED5290C0EFFFD8907B
:1005E0008F35036AF2CF96F0F29E93DD0900F5CFC6
:1005F00003F096BFF28E902703509123880E956FDB
:1006000094B1958194B395839E6B8FC09DF0A06B40
:10061000080E9F6F58DE01C0E9FF040E0224EA6E47
:1006200095C0EFFF036A8F51F2CF96F0F29E39DD4D
:1006300096BFF28EFF0845E092839E6B8FC09DF0BF
:10064000A06B080E9F6F3FDE02C097F001C096F0CE
:10065000040E9627000E9723020E9625016E000EBB
:100660009721036E01C0E9FF040E0324EA6E91C0D6
:10067000ECFFED5290C0EFFFD8908F35036AF2CFB8
:1006800096F0F29E2EDD0900F5CF03F096BFF28EB4
:100690009027035091239E6B8FC09DF0A06B080E96
:1006A0009F6F11DE02C097F001C096F0040E9627EE
:1006B000000E972396C0E9FF040E9725EA6E400EC0
:1006C000EF6E9251060802E10E0E926F036A8F518F
:1006D000F2CF96F0F29EE5DC96BFF28E0108D8A428
:1006E0009289036A8F51700FE96E0F0E0320EA6E34
:1006F00092C0EFFF8F2B21D7C9EF03F004011951EE
:10070000000A00010DE0010A14E0020A1EE0060AD8
:1007100027E0030A2CE00E0A2CE0010A30E03DD06D
:1007200019C058F40401596B020E0001916F57DE95
:1007300036D004011A2D06D0010E19160001916B56
:100740004EDE02D000014EDE2AD004011A2D05D063
:1007500019820001916B43DE02D0000143DE1FD0FD
:10076000020E176E1AC421F0916B39DE18D07FD6B5
:1007700016D018C058F4010E916F31DE10D004016C
:100780001A51010808E31AC418F01AC48EF00001C7
:10079000C6D6916B24DE000102D024DE00D048EFE3
:1007A00005F018C08EF004011951000A000105E09F
:1007B0000A0A0BE0010A2BE03CD00401586B596B8C
:1007C000020E0001916F0BDE36D08E531EE0010E3B
:1007D0008E5D036AF2CF8FF0F29EE6DC8FBFF28E61
:1007E000016E04011C5DD8A002D000010ED0036A86
:1007F0001C51240FE96E000E0320EA6EEFCF58F46F
:10080000010E0001916FEBDD01D0ECDD14D08E53B1
:100810000EE0036A04011C51240FE96E000E032050
:10082000EA6E1AC4EFFF0001916BD9DD01D0DADD69
:1008300002D0D8DD00D048EF05F08F918EBF8F81B8
:100840008E9F8FA117D09E6B8EC09DF0A06B080E5F
:100850009F6F39DD02C091F001C090F0040E902727
:10086000000E912390C0E9FF040E9125EA6E880ED8
:10087000EF6E0DD09E6B8EC09DF0A06B080E9F6F2B
:1008800022DD01C0E9FF040E0224EA6EEF6ABDEF2B
:1008900004F08F918EBF8F818E9F8FA117D09E6B9A
:1008A0008EC09DF0A06B080E9F6F0DDD02C091F011
:1008B00001C090F0040E9027000E912390C0E9FF34
:1008C000040E9125EA6E840EEF6E0ED09E6B8EC0E4
:1008D0009DF0A06B080E9F6FF6DC01C0E9FF040ECF
:1008E0000224EA6E840EEF6EC3EF04F08F918EBF88
:1008F0008F818E9F8FA117D09E6B8EC09DF0A06BB5
:10090000080E9F6FE0DC02C092F001C091F0040E6F
:100910009127000E922391C0E9FF040E9225EA6E02
:10092000EFCF90F00ED09E6B8EC09DF0A06B080EA6
:100930009F6FC9DC01C0E9FF040E0224EA6EEFCF0D
:1009400090F090AF02D090B502D0000E01D0010E11
:10095000016ECDEF04F01CC498F089DC015229E04F
:1009600004011951010A000105E0020A09E0030A25
:100970000DE01DD01CC48EF060D7916B30DD19D016
:100980001CC48EF086D7916B2ADD13D00401586BFE
:10099000596B1CC48EF00001A9D7015204E0010E6E
:1009A0000401586F0001020E916F19DD02D01ADDAB
:1009B00000D048EF05F0FE0E206E000C04011C2D47
:1009C00001D002D01C5349E11951000A00010BE08B
:1009D000010A0DE0210A1CE0010A1FE0030A2EE0D3
:1009E000010A31E037D0010E7D6FE5DF35D0040E0E
:1009F000EA6E580EE96EE26A2F0EE16E080E016E85
:100A0000E6CFEEFF012EFCD71EC491F0E8DC24D027
:100A1000020E7D6F7A81CFDF1FD0040EEA6E580E72
:100A2000E96EE26A260EE16E070E016EE6CFEEFF7A
:100A3000012EFCD7070E916FD2DC0ED01AC47BF0CA
:100A4000916BCDDC09D01AC42EF01BC42DF0916B34
:100A5000C6DC02D0C7DC00D00401000148EF05F07D
:100A6000176A040118517F0B000A000107E0010A10
:100A700007E0030A07E0230A07E008D03FD608D0C2
:100A800090D606D068D704D099D702D0ABDC00D07E
:100A90006BEF07F09E6B8EC09DF0A06B080E9F6FF2
:100AA00012DC01C0E9FF040E0224EA6EEFCF90F0E1
:100AB0008F51020806E190AD02D08F6B02D0010E7B
:100AC0008F6F8F5103081AE1840E906F9E6B8EC05A
:100AD0009DF0A06B080E9F6F63EC01F002C094F0D4
:100AE00001C093F0040E9327000E942393C0E9FFF6
:100AF000040E9425EA6E840EEF6E07D08F2D03D07E
:100B0000C80E906F02D0880E906FD8908E35036A11
:100B1000F2CF93F0F29E89EC00F00900F5CF03F0DC
:100B200093BFF28E916F03C092F09E6B8EC09DF0CA
:100B3000A06B080E9F6F63EC01F001C093F0010EF3
:100B40000124016E000E0220036E01C0E9FF040EB5
:100B50000324EA6E91C0EFFF92B1908192B390832B
:100B60009E6B8EC09DF0A06B080E9F6F63EC01F032
:100B700001C0E9FF040E0224EA6E90C0EFFF000CF2
:100B8000036A9C51700FE96E0F0E0320EA6EEF525C
:100B900019E09E6B9CC09DF0A06B080E9F6F63ECEC
:100BA00001F002C09EF001C09DF0040E9D27000ED2
:100BB0009E239DC0E9FF040E9E25EA6EEFCF9DF0B7
:100BC0009DAF02D0000E01D0010E016E000C97C047
:100BD0009CF0D6DF0152D8B47CD09E6B97C09DF0BC
:100BE000A06B080E9F6F63EC01F002C09DF001C086
:100BF0009CF0040E9C27000E9D23010E9C25016E87
:100C0000000E9D21036E01C0E9FF040E0324EA6E6D
:100C100098C0EFFF9A5102081EE19E6B97C09DF0AD
:100C2000A06B080E9F6F63EC01F002C09DF001C045
:100C30009CF0040E9C27000E9D239CC0E9FF040E2F
:100C40009D25EA6EEFCF9BF09BAD02D09A6B02D050
:100C5000010E9A6F18D09A51040815E19E6B97C047
:100C60009DF0A06B080E9F6F63EC01F001C0E9FFDF
:100C7000040E0224EA6EEFCF9BF09BAD03D0010E71
:100C80009A6F01D09A6B9A2D03D0C80E9B6F02D039
:100C9000880E9B6F99B19B8199B39B839E6B97C084
:100CA0009DF0A06B080E9F6F63EC01F002C09DF0F9
:100CB00001C09CF0040E9C27000E9D239CC0E9FF00
:100CC000040E9D25EA6E9BC0EFFF010E016E03D05E
:100CD00000D0000E016E000C7D51010A03E0030AF2
:100CE00013E024D0EA6A2F0EE96E040EE26E180EAD
:100CF000E16E080E016EE6CFEEFF012EFCD7916B80
:100D0000EFEC01F07D6B14D0EA6A260EE96E040E5A
:100D1000E26E180EE16E070E016EE6CFEEFF012EB9
:100D2000FCD77D6B916BEFEC01F002D07D6B00D0B6
:100D3000C4EF06F09E6B8FC09DF0A06B080E9F6FF6
:100D400063EC01F002C091F001C090F0010E0124AB
:100D5000016E000E0220036E01C0E9FF040E0324A1
:100D6000EA6E036AEFCF01F003C002F0BDEF06F0B8
:100D70007781796B020E8F6FDDD701C078F0C9EFF4
:100D800006F08E5302E1A8D704D08E51020801E18B
:100D9000EFD7000C8FC06EFF8F5303E0040E1F6E61
:100DA00002D0020E1F6EDAEF06F0186A176A21C031
:100DB0008FF0F0D74AEF07F08FC09CF0E1DE0152D0
:100DC00046E09E6B8FC09DF0A06B080E9F6F63EC9A
:100DD00001F002C098F001C097F0040E9727000EB2
:100DE0009823020E9725016E000E9821036E01C014
:100DF000E9FF040E0324EA6EECCF03F0ED52EFCFCF
:100E000095F003C096F096C0EAFF95C0E9FF91C047
:100E1000E2FF90C0E1FF93C002F092C001F00152E6
:100E200002E0022A02D0025206E0E6CFEEFF012ED7
:100E3000FCD7022EFAD78FC097F093C099F092C0DA
:100E400098F094C09AF0C3DE015003D000D0000E99
:100E5000016E36EF07F0020E8F6F916B370E906FB9
:100E6000936B76C092F0020E946FA6D776C07CF09A
:100E7000766B000C765301E0EEDF4FEF07F08E53F8
:100E80000AE1172C03D0F5EC01F004D0175002084A
:100E900001E18BD704D08E51020801E1EBD7000CA1
:100EA0001E308C6F8C338C331F0E8C171E5242E118
:100EB000040100513C0B00018D6F430E040100172B
:100EC00000018D5134081EE104010451800B01E042
:100ED000046B0001C5D56D98203C05D08E6B030EC8
:100EE0008F6FD8DD0ED08E6B020E8F6FD3DD20504A
:100EF000FE0807E0976B996B20C098F0040E9A6F7C
:100F000066DE17D08D51040814E18E6B3ADF8E6BCC
:100F1000020E8F6FBFDD2050FE080AE0203C01D09A
:100F200007D0976B996B20C098F0010E9A6F4FDE37
:100F300000D07AD01E50040814E1430E04010417B7
:100F4000FF0E206E00018E6B9ADF203C01D008D08E
:100F5000976B996B20C098F0020E9A6F38DE00D024
:100F600063D01EB42AD09E6B8CC09DF0A06B080E7F
:100F70009F6F63EC01F001C08EF001C001F0040E20
:100F80000224036E01C08EF08F6F9E6B8CC09DF0AB
:100F9000A06B080E9F6F63EC01F001C0E9FF040E27
:100FA0000224EA6EEF50430B8FC0EAFF8EC0E9FFC8
:100FB000EF6E8CC08EF0E5DE37D09E6B8CC09DF05E
:100FC000A06B080E9F6F63EC01F002C08FF001C0B0
:100FD0008EF0040E8E27000E8F238EC001F0040EBB
:100FE0008F25036E8EC08EF08F6F9E6B8CC09DF030
:100FF000A06B080E9F6F63EC01F002C091F001C07E
:1010000090F0040E9027000E912390C0E9FF040E8B
:101010009125EA6EEF50430B8FC0EAFF8EC0E9FFC7
:10102000EF6E8CC08EF02BDF4DEF08F0A19A1F52AF
:1010300001E139D0685237E068A404D069A402D035
:1010400014EF01F06DA201D02ED068AA04D069AAD5
:1010500002D02CEF01F068A204D069A202D033EFD5
:1010600001F068A004D069A002D0D2EF01F068A816
:1010700004D069A802D0E7EF01F068AC04D069ACF5
:1010800002D0ECEF01F08B6B68A608D069A606D001
:101090006CCF1EF002EC00F003D701D004D08B51CE
:1010A0008B2B0308F1E230EF00F08D91F2BE8D81C1
:1010B000F29E76513E0802E23E0E766F7651762B16
:1010C000036A370FE96E000E0320EA6E8CC0EFFF53
:1010D000F29E8DB1F28E020E9C6F52DD015201E044
:1010E000BADE80EF08F076513E0807E2020E9C6FF0
:1010F00047DD015201E0AFDEF6D78BC08CF0D5D7CB
:101100008BEF08F09EAA07D09EAAFED7AECF7EF046
:101110007EC08BF0E8D79E9A30EF00F06D6A696A66
:10112000080E6F6E94503009946E1F6A166AF2BEF4
:10113000168EF29EBEEC01F016BEF28EA1EF08F004
:10114000EDD7C6EF08F0166AF2BE168EF29EBEEC20
:1011500001F016BEF28E6D6A140E6F6E696A6D86AE
:10116000010E1F6EB7EF08F06DB601D0ECD71F2C43
:101170000BD06DBA09D0686A696AA08AC00EF212F3
:10118000110E696E020E1F6E000CDAD7EDDF1F50D4
:101190000208FCE117EF09F07791166AF2BE168E8D
:1011A000F29E020E8E6F8F6F75DC16BEF28EEAEF26
:1011B00008F077B101D0FDD77951792BA00FE96EF6
:1011C000040EEA6ED8B0EA2AEFCF80F07851795D4C
:1011D00001E3E2D780C001F01BEF09F09EA8FED723
:1011E000AD6E1FEF09F0F86AD09E078EEA6AE96AD1
:1011F000B886700EAF6E020EB06EA60EAC6E900E7C
:10120000AB6E1F6A236A766B7D6BC150C00B0F09F2
:10121000C16E070EB46E1B6A040E1C6E0C0E1D6EA2
:10122000A08A9D8AC00EF212ADEC01F0AED79CDF11
:1012300077A105D0BED701C07FF07F51CFD794DF13
:04124000F7D70300D9
:020000040030CA
:0E00000025CE3E1E008781000FC00FE00F408E
:00000001FF
;PIC18F4550
;CRC=41C8  CREATED="23-may-17 01:01"
