:020000040000FA
:020000000628D0
:040002000034003492
:0200080042288C
:04000C008316031341
:1000100006309F008501880101308600803087000E
:100020000C1483120B170B16003090008316031369
:1000300019309900981318139816181218158C1661
:100040008312981718131816981518119810A101F3
:10005000A201A301A401A501A601B20101308500FE
:1000600088010301D120A700A800A900AA00101050
:10007000EC308F0077308E0006183C2810148B1758
:1000800000004028B000030E83120313B1008B1848
:1000900052280C186E288C1ADC2831088300B00E08
:1000A000300E09000C12250899000C1E55280C1260
:1000B000240899000C1E5A280C12230899000C1EC3
:1000C0005F280C12220899000C1E64282108990050
:1000D0008B10310E8300B00E300E09000C10101082
:1000E000EC308F0777308E071014A60A2608023AE4
:1000F000031D9328A601A10A21080A3A031D93288B
:10010000A101A20A22080A3A031D9328A201A30A08
:1001100023080A3A031D9328A301A40A24080A3AD3
:10012000031D9328A401B20803199828B20AB7281E
:10013000A508031DA9282108D120A7002208D12045
:10014000A8002308D120A900A9172408D120AA00BB
:10015000B7282208D120A7002308D120A800A8177B
:100160002408D120A9002508D120AA00B728880199
:100170000310850D851DBF282A088800CC28051D81
:10018000C42829088800CC28851CC928280888008C
:10019000CC28051427088800310E8300B00E300EDD
:1001A000090082073F3406345B344F3466346D34C3
:1001B0007D3407347F346F348C121A080F39D12004
:1001C000AA008C1EE1288C121A080F39D120A90030
:1001D000A9178C1EE9288C121A080F39D120A80003
:1001E0008C1EF0288C121A080F39D120A70001307C
:0E01F000B2008B10310E8300B00E300E0900ED
:02400E00F13F80
:00000001FF
