:020000040000FA
:020000000628D0
:040002000034003492
:020008003F288F
:04000C008316031341
:1000100006309F008501880101308600803087000E
:100020000C1483120B170B16003090008316031369
:1000300019309900981318139816181218158C1661
:100040008312981718131816981518119810A101F3
:10005000A201A301A401A501A60101308500880128
:100060000301CE20A700A800A900AA001010EC30C0
:100070008F0077308E0010148B1700003D28C000D1
:10008000030E83120313C1008B184F280C1870281D
:100090008C1AD92841088300C00E400E09000C12AA
:1000A0002508303899000C1E53280C1224083038CB
:1000B00099000C1E59280C122308303899000C1E88
:1000C0005F280C122208303899000C1E6528210880
:1000D000303899008B10410E8300C00E400E09008D
:1000E0000C101010EC308F0777308E071014A60A12
:1000F0002608023A031D9528A601A10A21080A3AFA
:10010000031D9528A101A20A22080A3A031D952879
:10011000A201A30A23080A3A031D9528A301A40AF1
:1001200024080A3A031D9528A401A508031DA62842
:100130002108CE20A7002208CE20A8002308CE2028
:10014000A900A9172408CE20AA00B4282208CE208E
:10015000A7002308CE20A800A8172408CE20A900B5
:100160002508CE20AA00B42888010310850D851D1E
:10017000BC282A088800C928051DC128290888002C
:10018000C928851CC62828088800C92805142708FE
:100190008800410E8300C00E400E090082073F34E4
:1001A00006345B344F3466346D347D3407347F3429
:1001B0006F348C121A088600990041088300C00E23
:0401C000400E0900E4
:02400E00F13F80
:00000001FF
