:020000040000FA
:020000000628D0
:040002000034003492
:0200080041288D
:04000C008316031341
:1000100006309F008501880101308600803087000E
:100020000C1483120B170B16003090008316031369
:1000300019309900981318139816181218158C1661
:100040008312981718131816981518119810A101F3
:10005000A201A301A401A501A601B201AB01FF30D9
:10006000850088000301DC20A700A800A900AA00E1
:100070001010EC308F0077308E0010148B170000BA
:100080003F28B000030E83120313B1008B185128D0
:100090000C186D288C1AE72831088300B00E300E3A
:1000A00009000C12250899000C1E54280C12240873
:1000B00099000C1E59280C12230899000C1E5E286A
:1000C0000C12220899000C1E6328210899008B103D
:1000D000310E8300B00E300E09000C101010EC3001
:1000E0008F0777308E071014A60A2608023A031DE0
:1000F0009228A601A10A21080A3A031D9228A1010B
:10010000A20A22080A3A031D9228A201A30A230880
:100110000A3A031D9228A301A40A24080A3A031DDF
:100120009228A401B20803199728B20AB628A50894
:10013000031DA8282108DC20A7002208DC20A80035
:100140002308DC20A900A9172408DC20AA00B6286F
:100150002208DC20A7002308DC20A800A817240818
:10016000DC20A9002508DC20AA00B628FF30880082
:100170002B088207BE28C428CA28D028F73085005B
:100180002A088800AB0AD728FB3085002908880098
:10019000AB0AD728FD30850028088800AB0AD7288D
:1001A000F730850005142708AB018800D728310EE9
:1001B0008300B00E300E09008207C034F934A43435
:1001C000B034993492348234F834803490348C12C0
:1001D0001A080F39DC20AA008C1EEC288C121A0891
:1001E0000F39DC20A900A9178C1EF4288C121A08DC
:1001F0000F39DC20A8008C1EFB288C121A080F393E
:10020000DC20A7000130B2008B10310E8300B00E4D
:04021000300E0900A3
:02400E00F13F80
:00000001FF
