:020000040000FA
:020000000628D0
:020008002C28A2
:04000C008316031341
:1000100006309F0085018801013086000C14831290
:100020000B170B1600309000A101A201A301A4013F
:10003000A501A60101308500880103019E20A700CB
:10004000A800A900AA001010EC308F0077308E00B5
:1000500010148B1700002A28C000030E831203130C
:10006000C1008B183A280C18402841088300C00EA4
:10007000400E09008B10410E8300C00E400E090097
:100080000C101010EC308F0777308E071014A60A72
:100090002608023A031D6528A601A10A21080A3A8A
:1000A000031D6528A101A20A22080A3A031D65283A
:1000B000A201A30A23080A3A031D6528A301A40A82
:1000C00024080A3A031D6528A401A508031D762803
:1000D00021089E20A70022089E20A80023089E2019
:1000E000A900A91724089E20AA00842822089E207F
:1000F000A70023089E20A800A81724089E20A90076
:1001000025089E20AA00842888010310850D851DDE
:100110008C282A0888009928051D9128290888001C
:100120009928851C962828088800992805142708EE
:100130008800410E8300C00E400E090082073F3444
:1001400006345B344F3466346D347D3407347F3489
:020150006F340A
:00000001FF
